:0404000018EF03F0FE
:100408005E82FACF30F0FBCF31F0E9CF32F0EACF9D
:1004180033F0E1CF34F0E2CF35F0D9CF36F0DACF90
:1004280037F0F3CF38F0F4CF39F0F6CF3AF0F7CF12
:100438003BF0F8CF3CF0F5CF3DF09EA2CAD09E929B
:100448000001A281D4EC15F000017A4B7B2B10EC53
:1004580017F00009D8B417D08FEC06F0050EFDECA4
:1004680010F016501710D8B40CD0020EFDEC10F096
:1004780016041710D8A405D0000E00018F6F000EC7
:100488008E6FB1EC16F0200E0001745D4E0E000167
:100498007559D8B003D00001744B752BD00E0001EC
:1004A800785D070E00017959D8B004D00001784B67
:1004B800792B08D0000E0001796F000E786F435039
:1004C800D8A4422AE80E0001725D030E0001735998
:1004D800D8B004D00001724B732B0FD0000E00016E
:1004E800736F000E726F4050D8B407D04150D8A433
:1004F80002D0010E01D0000E416E3E50D8B404D097
:100508000001704B712B1ED0000E0001716F000EA0
:10051800706FD10E00018E5D070E00018F59D8A0B3
:100528000BD0FFEC15F0000E00018F6F000E8E6FE0
:100538000001824B832B03D000018E4B8F2B0001CF
:10054800764B772B4F50D8B412D0D00E00017C5D7B
:10055800070E00017D59D8B004D000017C4B7D2BDB
:1005680006D0000E00017D6F000E7C6F4A2AD00E67
:100578000001805D070E00018159D8B004D0000148
:10058800804B812B09D0000E0001816F000E806F17
:10059800492A5050D8A44B2A3B0E4B6405D0010E73
:1005A8000001A66F010E406E770E4A6405D0010E59
:1005B8000001A66F010E406E060E426404D0010EC3
:1005C8000001A86F01D000F03B0E496402D0000E74
:1005D800496EA4BE80EC13F09EAA03D0D2EC14F0AE
:1005E8009E9AF2A003D0F290BAEC16F03DC0F5FF47
:1005F8003CC0F8FF3BC0F7FF3AC0F6FF39C0F4FF34
:1006080038C0F3FF37C0DAFF36C0D9FF35C0E2FF84
:1006180034C0E1FF33C0EAFF32C0E9FF31C0FBFF5D
:0F06280030C0FAFF5E92110004EF13F0000000E3
:10063800000EA6EC10F0D8C0A4F0D9C0A5F0010EA9
:10064800A6EC10F00001D851DAEC16F08DD1000EAE
:100658000001F36F3F50D8B402D00001F38F000EB1
:100668000001E06F010EDF6F020EA6EC10F0D8C09B
:10067800E1F0D9C0E2F0F3C0E3F0000E0001E46F4E
:10068800350E0001E56F060E0001E66F92EC0BF0E7
:10069800010E0001AE6F1200400E0001F36F3F50D3
:1006A800D8B402D00001F38F000E0001E06F010EF4
:1006B800DF6F020EA6EC10F0D8C0E1F0D9C0E2F06E
:1006C800F3C0E3F0000E0001E46F350E0001E56FA2
:1006D800060E0001E66F92EC0BF0010E0001AE6F02
:1006E8001200070E0001F36F3F50D8B402D000018A
:1006F800F38F000E0001E06F010EDF6F020EA6EC13
:1007080010F0D8C0E1F0D9C0E2F0F3C0E3F0000E79
:100718000001E46F350E0001E56F060E0001E66F7B
:1007280092EC0BF0010E0001AE6F120086EC15F092
:100738001200290E0001F36F3F50D8B402D0000117
:10074800F38F000E0001E06F010EDF6F020EA6ECC2
:1007580010F0D8C0E1F0D9C0E2F0F3C0E3F0000E29
:100768000001E46F350E0001E56F060E0001E66F2B
:1007780092EC0BF0010E0001AE6F000E0001A96FA4
:10078800000E0001756F000E746F1200290E000133
:10079800F36F3F50D8B402D00001F38F000E000170
:1007A800E06F010EDF6F020EA6EC10F0D8C0E1F08A
:1007B800D9C0E2F0F3C0E3F0000E0001E46F350E9B
:1007C8000001E56F060E0001E66F92EC0BF0010EDA
:1007D8000001AE6F1200310E0001F36F3F50D8B424
:1007E80002D00001F38F000E0001E06F010EDF6FF1
:1007F800020EA6EC10F0D8C0E1F0D9C0E2F0F3C0C8
:10080800E3F0000E0001E46F350E0001E56F060EFF
:100818000001E66F92EC0BF0010E0001AE6F1200C2
:10082800300E0001F36F3F50D8B402D00001F38FAF
:10083800000E0001E06F010EDF6F020EA6EC10F053
:10084800D8C0E1F0D9C0E2F0F3C0E3F0000E000137
:10085800E46F350E0001E56F060E0001E66F92ECBD
:100868000BF0010E0001AE6F1200060E0001F36FCF
:100878003F50D8B402D00001F38F000E0001E06FA2
:10088800010EDF6F020EA6EC10F0D8C0E1F0D9C05F
:10089800E2F0F3C0E3F0000E0001E46F350E000152
:1008A800E56F060E0001E66F92EC0BF0010E0001F9
:1008B800AE6F12000D0E0001F36F3F50D8B402D096
:1008C8000001F38F000E0001E06F010EDF6F020ED2
:1008D800A6EC10F0D8C0E1F0D9C0E2F0F3C0E3F024
:1008E800000E0001E46F350E0001E56F060E0001F1
:1008F800E66F92EC0BF0010E0001AE6F1200000ED5
:100908000001F26F000EF16F12D0D8900001F1359E
:10091800D96E0001F235DA6E000ED926020EDA22FF
:10092800000EDE6E000EDD6E0001F14BF22B0001B1
:10093800AD510001EE6FEF6B0001EE510001F15D6A
:100948000001F251800A0001F06F0001EF51800AA6
:100958000001F059D8A0D9D7000E0001AD6F1200E0
:10096800000E0001A66F1200010EA6EC10F00001A7
:10097800D951000AD8A412000001D851010AD8B4EC
:10098800D5D6030AD8B4ADD6010AD8B460D6120AAF
:10099800D8B490D7030AD8B468D7010AD8B4AFD767
:1009A800060AD8B4DDD73C0AD8B4C3D66A0AD8B484
:1009B80073D6EA0AD8B4EAD6190AD8B431D7010AE4
:1009C800D8A4120008D738EC0DF0000E0001B36F60
:1009D800899AD18004001FEC17F00001F46BF56BC5
:1009E8000001F419F511D8B411D00DEC17F0000E70
:1009F8000001836F000E826F030EA6EC10F0000159
:100A0800D8510001D911D8A41CEC03F00001AE059F
:100A1800D8A419D007EC17F00009D8A414D0E1EC39
:100A280016F00001F46BF56B0001F419F511D8B458
:100A38000AD055EC16F0000E0001AE6F000E000152
:100A48008F6F000E8E6FF7EC11F00001A705D8B478
:100A580005D0020E0001A719D8A40FD00001B105D6
:100A6800D8A409D0000E0001B16F010E0001B36FC8
:100A7800010E0001A66F898A19D04050D8A416D05B
:100A88000001A651D8A412D0899A61EC16F0000E84
:100A98000001756F000E746F0001B151D8A406D023
:100AA800010E0001B16F010E0001B36F25EC15F0C6
:100AB800E806D8A41FD01DEC14F00009D8A415D05E
:100AC800000E0001A66F0001A751D8A408D0899A8A
:100AD80061EC16F0000E406E000E416E0BD04E0E0B
:100AE8000001756F200E746F05D0010E0001A66F0E
:100AF800010E406E1DEC14F00009D8A40FD00001BF
:100B0800B005D8A403D0010E0001B36F000E000198
:100B1800B06F77EC16F06DEC16F011D00001B05103
:100B2800D8A403D0010E0001B36F010E0001B06F0D
:100B38004F50D8B481EC16F0010E0001A86F0001E7
:100B4800835105E1F10E0001825DD8A00FD027EC9A
:100B580016F0F3EC16F0010E0001B56F010E00015E
:100B6800B36F000E0001836FE60E826F0001B305BC
:100B7800D8A407D0000E0001B36FB8EC13F0BEEC98
:100B880015F0020E0001B319D8A403D0000E00011D
:100B9800B36F46EC15F0E806D8A49CD00001AA5122
:100BA800D8A403D0010E0001B36F010E0001AA6F93
:100BB8000001A705D8A404D0010E0001A66F94D0A7
:100BC8001DEC14F00009D8B404D00001A851D8A431
:100BD80006D0010E0001A66F010E406E85D00001FF
:100BE800A651D8A481D00001A805D8A47DD0010EB3
:100BF8000001AB6FB8EC13F0BEEC15F0C3EC16F0C7
:100C0800000E0001A86F6DEC16F049EC16F0000E0E
:100C18000001C36F640EC26F3AEC16F01BEC17F0BC
:100C2800000E0001C36F640EC26F3AEC16F0000E9E
:100C380000016A6F000E00016B6F000E00016C6FFF
:100C480052EC11F0000E00016A6F7A0E00016B6F12
:100C5800440E00016C6F1DEC17F0C00E0001C26F4E
:100C68004B0E0001C36F440E0001C46F6AC0C5F08B
:100C78006BC0C6F06CC0C7F08EEC0FF00001D8B0A6
:100C88001ED079EC14F004001F0E0001C36F400E53
:100C9800C26F3AEC16F00400010E3E6E42EC13F0FF
:100CA800030E0001C36FE80EC26F3AEC16F0000E97
:100CB8003E6E000E0001836FB40E826F03D0010EEA
:100CC8000001A66F000E0001AB6F1DEC17F061EC80
:100CD80016F00AD00001AA05D8A403D0010E00011D
:100CE800B36F000E0001AA6F0001A605D8A410D0AA
:100CF8004004D8A40AD04104D8B413EC17F04150EA
:100D0800D8A468D615EC17F065D613EC17F062D6A0
:100D180015EC17F05FD6010EFDEC10F016C02EF0A2
:100D280017C02FF08BB003D02C6A2C2A01D02C6A64
:100D38008B502C18FE0B2C188B6E050EFDEC10F04A
:100D480016501710D8B41200020EFDEC10F016045D
:100D58001710D8A41200B1EC16F0040EFDEC10F038
:100D68001650FDEC16F03F50D8B4FAD017D1010E4A
:100D7800FDEC10F016C01DF017C01EF0020E1F6E1D
:100D8800000EFDEC10F01650206E02EC17F001C0BA
:100D980021F002C022F0F2EC0FF0CBEC16F01200BA
:100DA800010EFDEC10F016C01DF017C01EF0030E6A
:100DB8001F6E000EFDEC10F01650206E02EC17F0BE
:100DC80001C021F002C022F0F2EC0FF0CBEC16F0DB
:100DD8001200010EFDEC10F016C01DF017C01EF039
:100DE800030E1F6E000EFDEC10F01650206E02EC84
:100DF80017F001C021F002C022F0F2EC0FF0CBECAA
:100E080016F01200010EFDEC10F016C01DF017C010
:100E18001EF0040E1F6E000EFDEC10F01650206E32
:100E280002EC17F001C021F002C022F0F2EC0FF042
:100E3800CBEC16F0000E1E6E010E1D6E010EFDECC1
:100E480010F016C01FF017C020F00A0E216E000E19
:100E5800226E350E236E060E246E37EC0EF0010E50
:100E68000001AE6F1200010EFDEC10F016C01DF06F
:100E780017C01EF0050E1F6E000EFDEC10F0165088
:100E8800206E02EC17F001C021F002C022F0F2EC53
:100E98000FF0CBEC16F0000E1E6E010E1D6E010E4B
:100EA800FDEC10F016C01FF017C020F00B0E216EDD
:100EB800000E226E350E236E060E246E37EC0EF0F1
:100EC800010E0001AE6F12002E502D6E2C6A000E1E
:100ED8002C142E6EFF0E2D142F6E010EFDEC10F04B
:100EE80017C016F0176A16502E12000E1E6E010E4D
:100EF8001D6E010E1F6E000EFDEC10F01650020F55
:100F0800206E2E0E216E000E226EF2EC0FF0CBEC4E
:100F180016F012002E502D6E2C6A000E2C142E6E18
:100F2800FF0E2D142F6E010EFDEC10F017C016F0F9
:100F3800176A16502E12000E1E6E010E1D6E010E3F
:100F48001F6E000EFDEC10F01650020F206E2E0ED4
:100F5800216E000E226EF2EC0FF0CBEC16F01200B0
:100F6800040EFDEC10F01750000AD8A41200165019
:100F7800000AD8B415D7070AD8B4F9D60E0AD8B4D7
:100F8800A3D7030AD8B43ED7010AD8B46CD7220A2B
:100F9800D8B4C0D7690AD8A412001BD7B1EC16F090
:100FA8001200CFC0D3F00001D46BD56B0001CE3551
:100FB8000001D33701E3D4810001D3510001D86F78
:100FC800D2C0D3F00001D46BD56B0001D13500013C
:100FD800D33701E3D4810001D3510001D76F000159
:100FE800D8510001D8B411D00001D7510001D85D03
:100FF800D8B012D00001D85100080001D72500014F
:10100800D36F180E0001D36507D0D0C0CDF0D1C082
:10101800CEF0D2C0CFF012000001D7510001D8B4F1
:1010280011D00001D8510001D75DD8B012D000010D
:10103800D75100080001D8250001D36F180E000110
:10104800D36507D0CDC0CDF0CEC0CEF0CFC0CFF0A5
:101058001200060E0001D66F0001CFAF02D00001CA
:10106800D68F0001D2AF02D00001D68D0001CE8FFD
:10107800FF0E0001CD17FF0E0001CE17000E000174
:10108800CF170001D18FFF0E0001D017FF0E00010E
:10109800D117000E0001D2170001D7510001D85D09
:1010A800D8B025D00001D890D037D137D237000139
:1010B800D7070001D8510001D719D8B411D00001C1
:1010C800D607D6C0D3F0070E0001D317D8B408D07E
:1010D800E9D70001D890CF33CE33CD330001D82BD8
:1010E8000001D7510001D819D8B42BD0F2D700018C
:1010F800D8510001D75DD8B024D00001D890CD37A1
:10110800CE37CF370001D8070001D8510001D719D1
:10111800D8B411D00001D607D6C0D3F0070E00010D
:10112800D317D8B408D0E9D70001D890D233D13337
:10113800D0330001D72B0001D7510001D819D8A40A
:10114800F3D70001D6AF12D0FF0E0001CD1BFF0E62
:101158000001CE1BFF0E0001CF1B010E0001CD27A1
:10116800000E0001CE23000E0001CF230001D6ADF2
:1011780012D0FF0E0001D01BFF0E0001D11BFF0E85
:101188000001D21B010E0001D027000E0001D1235F
:10119800000E0001D223000E0001D66F0001CD51D0
:1011A8000001D0270001CE510001D1230001CF5109
:1011B8000001D2230001D2AF15D0FF0E0001D01BD1
:1011C800FF0E0001D11BFF0E0001D21B010E000112
:1011D800D027000E0001D123000E0001D223010EFA
:1011E8000001D66FD0C0C2F0D1C0C3F0D2C0C4F0E5
:1011F800D8C0C5F0D6C0C6F0B2EC0CF0C2C0CDF075
:10120800C3C0CEF0C4C0CFF01200D0C0D4F0D1C05B
:10121800D5F0D2C0D6F0D3C0D7F0060ED8900001D2
:10122800D437D537D637D737E82EF8D70001D41FAB
:10123800D51FD61FD71FD42B000ED523D623D723CF
:10124800000E0001D4250001C26F900E0001D521C7
:101258000001C36FD00E0001D6210001C46F030E38
:101268000001D7210001C56FD0C0D8F0D1C0D9F096
:10127800D2C0DAF0D3C0DBF0060ED8900001D83720
:10128800D937DA37DB37E82EF8D7D8C0C6F0D9C057
:10129800C7F0DAC0C8F0DBC0C9F025EC0CF0C2C05A
:1012A800DCF0C3C0DDF00001DD05D8A04FD0D0C010
:1012B800D4F0D1C0D5F0D2C0D6F0D3C0D7F0040E48
:1012C800D8900001D437D537D637D737E82EF8D796
:1012D8000001D41FD51FD61FD71FD42B000ED5232E
:1012E800D623D723000E0001D4250001C26F900E2B
:1012F8000001D5210001C36FD00E0001D6210001E5
:10130800C46F030E0001D7210001C56FD0C0D8F00B
:10131800D1C0D9F0D2C0DAF0D3C0DBF0040ED89037
:101328000001D837D937DA37DB37E82EF8D7D8C0F5
:10133800C6F0D9C0C7F0DAC0C8F0DBC0C9F025ECE8
:101348000CF0C2C0DCF0C3C0DDF0AC840001DD05E8
:10135800D8B01200000E0001DD6F190EDC6FDCC082
:10136800AFFFAC98AB8EAB88AC8A1200CCC0D0F083
:101378000001D16BD26B0001CB350001D03701E3FE
:10138800D1810001D0510001D76F0001D751D8A4F5
:101398000AD0000E0001CA6F000E0001CB6F000ECC
:1013A8000001CC6F1200CFC0D0F00001D16BD26B1E
:1013B8000001CE350001D03701E3D1810001D051C1
:1013C8000001D86F0001D851D8A40AD0000E00013E
:1013D800CA6F000E0001CB6F000E0001CC6F120027
:1013E800000E0001D46F000E0001D56F000E000141
:1013F800D66F0001D851890F0001D75FCCC0D8F053
:101408000001CF510001D81B800E0001D817000140
:10141800CB8FFF0E0001CA17FF0E0001CB17000E7D
:101428000001CC170001CE8FFF0E0001CD17FF0E73
:101438000001CE17000E0001CF17180E0001D36F60
:101448000001D890D437D537D6370001CD510001E7
:10145800CA5D0001CE510001CB590001CF510001F6
:10146800CC59D8A00ED00001CD510001CA5F0001AF
:10147800CE510001CB5B0001CF510001CC5B0001D4
:10148800D4810001D890CA37CB37CC370001D32F8D
:10149800D7D7D4C0C2F0D5C0C3F0D6C0C4F0D7C027
:1014A800C5F0D8C0C6F0B2EC0CF0C2C0CAF0C3C0D8
:1014B800CBF0C4C0CCF012000001CD69CE690001A8
:1014C800C4510001C511D8A409D00001CD1D0001E7
:1014D800C26F0001CE1D0001C36F1200000E000193
:1014E800CC6FC2C0D9FFC3C0DAFFDF500001C66F9E
:1014F8000001C6510001CA6FCB6B0001C24BC32B60
:10150800070E0001CC6501D041D0010E0001CA15BB
:101518000001C66F000E0001CB150001C76F010E58
:101528000001CD150001C86F000E0001CE150001A5
:10153800C96F0001C6510001C81B0001C751000155
:10154800C91B0001C8510001C911D8B414D0D890E2
:101558000001CE310001C76F0001CD310001C66F17
:10156800080E0001C6190001CD6F840E0001C719CD
:101578000001CE6F04D00001D890CE33CD330001E6
:10158800CC2B0001D890CB33CA33BAD70001C4079B
:10159800D8A0C5070001C4510001C511D8A49ED721
:1015A8000001CD1FCE1FCDC0CAF0CEC0CBF0CAC03F
:1015B800C6F0CBC0C7F0C7C0C6F00001C76B0001BA
:1015C800C651CDC0C8F0CEC0C9F0C8C0C9F000012E
:1015D800C86B0001C8110001CD6F0001C95100019D
:1015E800CE6FCDC0C2F0CEC0C3F012008B888B8AFC
:1015F80081B2FED76C8A6FCFC9F0000EC96E000E9B
:101608000001CA6F050E0001CA6501D012D06DA095
:10161800FED70001CA51010D9F0EF324D96E010EA9
:10162800F420DA6E6FCFDFFF000E6F6E0001CA2B59
:10163800E9D78B986C9A01019F510001C86FC76B5D
:10164800C66BC2C0D9FFC3C0DAFF0001C651DE12A3
:10165800C751DE12C851DE120101A0510001C66F48
:10166800C76BC86BC7C0C8F0C6C0C7F00001C66B5F
:10167800C2C0D9FFC3C0DAFF0001C651DE12C7518C
:10168800DE12C851DE120101A1510001C66FC76BFD
:10169800C86BC2C0D9FFC3C0DAFF0001C651DE1251
:1016A800C751DE12C851DE120101A2510001C86FF4
:1016B800C76BC66BC4C0D9FFC5C0DAFF0001C651ED
:1016C800DE12C751DE12C851DE120101A35100011A
:1016D800C66FC76BC86BC7C0C8F0C6C0C7F00001EB
:1016E800C66BC4C0D9FFC5C0DAFF0001C651DE12FF
:1016F800C751DE12C851DE120101A4510001C66FA4
:10170800C76BC86BC4C0D9FFC5C0DAFF0001C6519A
:10171800DE12C751DE12C851DE121200AA0E0101F4
:10172800506FAA0E0101516F9B0E0101526F580EA6
:101738000101536F0001E451090F0101546F0001C9
:10174800E0510101556FDFC056F10001E25101017E
:10175800576FE1C058F1B8C059F10001B82BE3C088
:101768005AF1000E0001ED6F32D00001ED51010D6C
:10177800E5C0E7F0E6C0E8F0F3500001E727F450D1
:101788000001E823E7C0F6FFE8C0F7FFF86A0001A8
:10179800ED510001E96FEA6B0B0E0001E927000E1D
:1017A800EA23500E0001E925D96E010E0001EA2155
:1017B800DA6E050EF76403D00800F55005D0F6CFB1
:1017C800E9FFF7CFEAFFEF50DF6E0001ED2B0001D4
:1017D800E4510001ED5DD8A0C8D70B0E0001ED273C
:1017E800540E0001C26F010E0001C36F070E000105
:1017F800E4250001C46F0001C56B000EC52360EC31
:101808000AF0C2C0EBF0C3C0ECF00001ED51010DCD
:10181800500EF324D96E010EF420DA6E0001EC515B
:10182800DF6E0001ED2B0001ED51010D500EF32488
:10183800D96E010EF420DA6EEBC0DFFFEDC057F071
:101848001200000E0001CB6F0001C9AF0CD00001DF
:10185800C91FC81FC71FC66D000EC723C823C923C9
:10186800010E0001CB6F0001C5AF0CD00001C51FF0
:10187800C41FC31FC26D000EC323C423C523010E9A
:101888000001CB1B000E0001CC6F000ECD6F000EC7
:10189800CE6F000ECF6F0001C6510001C7110001C5
:1018A800C8110001C911D8B442D0010E0001CA6F95
:1018B80008D00001D890C637C737C837C9370001E4
:1018C800CA2B0001C9AFF5D70001D890CC37CD3766
:1018D800CE37CF370001C6510001C25D0001C751A4
:1018E8000001C3590001C8510001C4590001C95180
:1018F8000001C559D8A012D00001C6510001C25F2D
:101908000001C7510001C35B0001C8510001C45B5D
:101918000001C9510001C55B0001CC810001D890CC
:10192800C933C833C733C6330001CA2FCDD7000126
:10193800CB510001D8B409D00001CF1FCE1FCD1F55
:10194800CC6D000ECD23CE23CF23CCC0C2F0CDC0AA
:10195800C3F0CEC0C4F0CFC0C5F012000001C5511D
:101968000001D8B408D00001C2510001C311000120
:10197800C411D8A411D0000E0001C26F000E0001DE
:10198800C36F000E0001C46F12000001C52B0001D7
:10199800D890C433C333C233000E0001C21500010E
:1019A800C76F000E0001C3150001C86FFE0E0001CD
:1019B800C4150001C96F0001C7510001C811000119
:1019C800C911D8B411D0E1D70001C52B010E00010F
:1019D800C227000E0001C323000E0001C42300012A
:1019E800D890C433C333C233000E0001C2150001BE
:1019F800C76F000E0001C3150001C86FFF0E00017C
:101A0800C4150001C96F0001C7510001C8110001C8
:101A1800C911D8B408D0D8D70001C5070001D8909B
:101A2800C237C337C4370001C3BF04D0020E000158
:101A3800C561F2D70001C5B102D00001C39F000102
:101A4800D890C5330001C5510001C4130001C65127
:101A58000001D8B402D00001C48FC2C0C2F0C3C014
:101A6800C3F0C4C0C4F012009B8CD388D38AD38C33
:101A7800D396030ED312928092820F0138939484E6
:101A8800938A92860F013897928C92948994939CAA
:101A98008A9C939E8A9E94928B82929A899A949019
:101AA8008B90929E899E0F013A9F0F013A9D948ECA
:101AB800948C0F013F93BA96BA98BA9ABA9CBA9482
:101AC800030EBA12000EBC6E9D8AF2866288AC9430
:101AD800B896800E0001D06F250ED16F000ED26F20
:101AE800000ED36F09EC09F0C08EC050C70B100967
:101AF800C06EC050F80B0609C06EC280F28C9E9270
:101B08009D829F927A0EBB6EBA84F28E61EC16F0BB
:101B18001DEC17F0000E0001AB6F000E0001B56F51
:101B2800FEEC14F0AA0E00016219D8B406D0010E1A
:101B38000001A66FF7EC11F003D0000E0001A66FAC
:101B480014EC16F0000E0001B16F000E0001A86F32
:101B5800000E406E000E416E000E436E000E426E87
:101B6800BCEC0DF00009D8B412009FEC16F012007E
:101B7800000E0001D56F000E0001D66F000E0001A7
:101B8800D76F000E0001D86F000E0001D96F000E4C
:101B98000001DA6FA2EC15F0580E0001CF6F9B0E12
:101BA8000001D06F000E0001D16F960E0001D26FB8
:101BB800920E0001D36F770E0001D46F6D8C6C50BC
:101BC800F00B05096C6ECFC0C4F0D0C0C5F0D1C011
:101BD800C6F0D2C0C7F0D3C0C8F0D4C0C9F0A5ECD5
:101BE80011F0CFC0C4F0D0C0C5F0D1C0C6F0D2C08B
:101BF800C7F0D3C0C8F0D4C0C9F0A5EC11F0D50E19
:101C08000001C26F000E0001C36FD80E0001C46F3F
:101C1800000E0001C56FFAEC0AF00001D551000171
:101C2800CF190BE10001D6510001D01906E10001DE
:101C3800D7510001D119D8B412D00001D8510001F0
:101C4800D2190BE10001D9510001D31906E10001B5
:101C5800DA510001D419D8B402D0000E1200A38EB4
:101C6800F28C010E1200AA0E0101506FAA0E01019A
:101C7800516F9B0E0101526F580E0101536F225094
:101C8800090F0101546F1E500101556F1DC056F117
:101C980020500101576F1FC058F1B8C059F1000119
:101CA800B82B21C05AF1000E2B6E29D02B50010DF4
:101CB80023C025F024C026F0F3502526F450262210
:101CC80025C0F6FF26C0F7FFF86A2B50276E286A52
:101CD8000B0E2726000E2822500E2724D96E010E3F
:101CE8002820DA6E050EF76403D00800F55005D0F9
:101CF800F6CFE9FFF7CFEAFFEF50DF6E2B2A22502D
:101D08002B5CD8A0D3D70B0E2B26540E016E010ED8
:101D1800026E070E2224036E046A000E042225ECCC
:101D28000FF001C029F002C02AF02B50010D500E0F
:101D3800F324D96E010EF420DA6E2A50DF6E2B2AB6
:101D48002B50010D500EF324D96E010EF420DA6EDB
:101D580029C0DFFF2BC057F01200AA0E0101006F47
:101D6800AA0E0101016F0001D251080F0101026F93
:101D7800D1C003F10001D0510101046FCFC005F1BA
:101D8800000E0001D96F21D00001D951010DF35087
:101D98000001D325D96EF4500001D421DA6E000178
:101DA800D9510001D56FD66B060E0001D527000E5C
:101DB800D623000E0001D525E16E010E0001D621C3
:101DC800E26EDFCFE7FF0001D92B0001D2510001FD
:101DD800D95DD8A0D9D7060E0001D927000E000179
:101DE800C26F010E0001C36F060E0001D22500016B
:101DF800C46F0001C56B000EC52360EC0AF0C2C0B9
:101E0800D7F0C3C0D8F00001D951010D000EF3245A
:101E1800D96E010EF420DA6E0001D851DF6E000190
:101E2800D92B0001D951010D000EF324D96E010EF2
:101E3800F420DA6ED7C0DFFFD9C0B2F00001D92B89
:101E480012000C680D6803500410D8A405D00C1CAF
:101E5800016E0D1C026E1200000E0B6E01C0D9FF40
:101E680002C0DAFFDF50056E0550096E0A6A014AA2
:101E7800022A070E0B6401D028D0010E0914056E42
:101E8800000E0A14066E010E0C14076E000E0D14D7
:101E9800086E0550071A0650081A07500810D8B4DB
:101EA8000CD0D8900D30066E0C30056E080E051853
:101EB8000C6E840E06180D6E03D0D8900D320C32BD
:101EC8000B2AD8900A320932D4D70306D8A00406C0
:101ED80003500410D8A4C0D70C1E0D1E0CC009F066
:101EE8000DC00AF009C005F00AC006F006C005F0EA
:101EF800066A05500CC007F00DC008F007C008F0CE
:101F0800076A07100C6E08500D6E0CC001F00DC06A
:101F180002F012000001C4AF1DD0C2C0C8F0C3C097
:101F2800C9F0C4C0CAF00001C81FC91FCA1FC82B06
:101F3800000EC923CA23000E0001C8250001C26F84
:101F4800000E0001C9210001C36F800E0001CA21E3
:101F58000001C46F0001C7AF1DD0C5C0C8F0C6C01E
:101F6800C9F0C7C0CAF00001C81FC91FCA1FC82BC3
:101F7800000EC923CA23000E0001C8250001C56F41
:101F8800000E0001C9210001C66F800E0001CA21A0
:101F98000001C76F000E0001C21B000E0001C31B29
:101FA800800E0001C41B000E0001C51B000E0001BD
:101FB800C61B800E0001C71B0001C5510001C25D90
:101FC8000001C6510001C3590001C7510001C4599D
:101FD800D8B002D0D8901200D8801200AA0E010101
:101FE800006FAA0E0101016F2050080F0101026F56
:101FF8001FC003F11E500101046F1DC005F1000E42
:10200800276E18D02750010DF3502124D96EF450B3
:102018002220DA6E2750236E246A060E2326000E2D
:102028002422000E2324E16E010E2420E26EDFCF6D
:10203800E7FF272A2050275CD8A0E4D7060E2726DA
:10204800000E016E010E026E060E2024036E046A55
:10205800000E042225EC0FF001C025F002C026F086
:102068002750010D000EF324D96E010EF420DA6E0C
:102078002650DF6E272A2750010D000EF324D96E53
:10208800010EF420DA6E25C0DFFF27C0B2F0272A40
:102098001200000E0001C86F010EC76F000E00018C
:1020A800CA6F000EC96F0001CABF08D00001CA512B
:1020B80026E1280E0001C95DD8B021D00D0EE82E0A
:1020C800FED700F0000EA6EC14F0C2C0C5F0C3C0E5
:1020D800C6F0860E0001C55D010E0001C659D8B0D4
:1020E8000AD0000E0001C86F000EC76F000E000175
:1020F8009D6F000E9C6F0001C94BCA2BD4D70001FD
:10210800C7510001C811D8B40BD0040E00019C19A6
:1021180000019D11D8B409D000019C4B9D2B05D01E
:10212800000E00019D6F000E9C6F040E00019C19AB
:1021380000019D11D8A402D0010E01D0000E0001AB
:10214800B76F12000001DC6F000E0001DE6F000E99
:10215800DD6F3BD00001B9510001DB6FDA6B000184
:10216800DA510001DD130001DB510001DE1300012B
:10217800BA510001DD13DDC0D8F0DEC0D9F012007D
:10218800BBC0D8F00001D96B12000001BC5100019E
:10219800DB6FDA6B0001DA510001DD130001DB515E
:1021A8000001DE130001BD510001DD13DDC0D8F0D0
:1021B800DEC0D9F012003FEC12F00001DA6F000126
:1021C800DA510001D86FD96B12000001DC51000A06
:1021D800D8B4C0D7010AD8B4D3D7030AD8B4D5D74E
:1021E800010AD8B4E8D7000E0001D96F000ED86FE5
:1021F80012001A6E000E1C6E000E1B6E37D0F70E02
:1022080001019F25166E176AFF0E172212000101A1
:10221800A051196E186A18501B1219501C1201018E
:10222800A1511B121BC016F01CC017F012000101AF
:10223800A251196E186A18501B1219501C1201016C
:10224800A3511B121BC016F01CC017F01200A4C12A
:1022580016F0176A1200A5C116F0176A120081EC71
:1022680012F0186E1850166E176A12001A50000AEB
:10227800D8B4C5D7010AD8B4CAD7030AD8B4D7D7AF
:10228800010AD8B4E4D7070AD8B4E5D7010AD8B404
:10229800E6D7000E176E000E166E1200000E000133
:1022A800DA6F000ED96F0001DABF08D00001DA51E9
:1022B80030E1320E0001D95DD8B02BD04BEC14F0D0
:1022C8000009D8B4FBD76AC0CDF06BC0CEF06CC0A3
:1022D800CFF0030EA6EC14F0C2C0CAF0C3C0CBF016
:1022E800EAEC15F0CAC0D0F0CBC0D1F0CCC0D2F027
:1022F800D5EC07F0CDC06AF0CEC06BF0CFC06CF063
:102308004BEC14F0E806D8B4FBD70001D94BDA2B14
:10231800CAD76AC0CAF06BC0CBF06CC0CCF0000E54
:102328000001CD6F480E0001CE6F420E0001CF6F45
:10233800BAEC09F0CAC06AF0CBC06BF0CCC06CF044
:102348001200C6C050F1C4C0CAF0C5C0CBF0C6C0A8
:10235800CCF0CBC0CAF0CCC0CBF00001CC6B0001F4
:10236800CA510101516FC4C052F1C9C053F1C7C06D
:10237800CAF0C8C0CBF0C9C0CCF0CBC0CAF0CCC042
:10238800CBF00001CC6B0001CA510101546FC7C0EA
:1023980055F18B888B9A81B2FED76C8A000E0001AA
:1023A800CE6F050E0001CE6501D012D06FCFCDF0F3
:1023B8000001CE51010D500EF324D96E010EF42008
:1023C800DA6EDF506F6E6DA0FED70001CE2BE9D715
:1023D8008B988B8A6C9A000E0001C36F140EC26F23
:1023E8003AEC16F0120000019E0500019F11D8A4D6
:1023F8000FD04DEC10F0000E00019F6F000E9E6F85
:10240800000E00017B6F000E7A6F19EC17F002D0F6
:10241800EEEC13F0F40E00017A5D010E00017B5919
:10242800D8A006D000019C5100019D11D8A408D065
:10243800B80E00017A5D0B0E00017B59D8A007D0B9
:10244800000E00019F6F010E9E6F17EC17F0000140
:10245800B605D8A404D0010E0001A76F1200000130
:10246800B705D8A404D0020E0001A76F1200000E11
:102478000001A76F1200000E0001D46F000ED36F89
:10248800000E0001D76F000ED66F000E0001D26F4C
:10249800000ED16F050E0001D56FB90E0001C26F95
:1024A800000E0001C36FD5C0C4F00001C56B60EC1D
:1024B8000AF0C2C0D3F0C3C0D4F00001BE5100017D
:1024C800D06FCF6B0001CF510001D6130001D0515E
:1024D8000001D7130001BF510001D6130001D651E6
:1024E8000001D31908E10001D7510001D419D8A47B
:1024F80002D0010E1200000E1200000E146E000E23
:10250800136E01019F51FE0F156E9F0E016E010E95
:10251800026E15C003F0046A25EC0FF001C011F03B
:1025280002C012F01550010D9F0EF324D96E010E52
:10253800F420DA6EDF500E6E0E50106E0F6A0F50D8
:1025480013121050141215500E6E0F6A010E0E263B
:10255800000E0F229F0E0E24D96E010E0F20DA6E88
:10256800DF50106E105013121350111806E114505A
:102578001218D8A402D0010E1200000E1200000E8C
:102588000001C36F080EC26F3AEC16F01BEC17F08F
:10259800000E0001AC6F180E0001AC6514D01200DB
:1025A800000E0001716F000E706F180E0001AC195B
:1025B800D8A409D0000E0001C36F060EC26F3AEC12
:1025C80016F01DEC17F04BEC14F0E806D8B4E8D779
:1025D8000001715112E1A00E0001705DD8B00DD05C
:1025E8004BEC14F00009D8A408D00001715105E1A2
:1025F800A00E0001705DD8A0F3D70001AC2BCBD79B
:1026080004EE47F011EE68F0EE6AE550E150FCE1A7
:10261800E250FAE104EE00F0470EEE6AE806FDE14A
:1026280003EE00F0FB0EEE6AE806FDE102EE00F0B4
:10263800F00EEE6AE806FDE101EE00F0EA0EEE6A41
:10264800E806FDE100EE60F0620EEE6AE806FDE1E4
:1026580000EE3EF01F0EEE6AE806FDE1420EF66E51
:102668002E0EF76E000EF86E0900F5CF5DF05E9045
:102678005E92000EF86E0001E7EF04F04BEC14F0E8
:10268800E806D8B4FBD7F8EC16F0000E0001C86FC6
:10269800000EC76F0001C8BF08D00001C85127E16C
:1026A800780E0001C75DD8B022D004004BEC14F0BE
:1026B8000009D8A408D00001715105E1A00E00015D
:1026C800705DD8A0F3D7C3EC12F00001715105E199
:1026D800A10E0001705DD8A006D0010E0001A66F02
:1026E800010E406E04D00001C74BC82BD3D78BEC2A
:1026F80016F095EC16F01200A3BE02D0A49E1200AC
:102708006FCF01F0000E6F6E59A015D05850575C6E
:10271800D8B005D059906C9AA49E8B8A1200585054
:10272800010D500EF324D96E010EF420DA6EDF503D
:102738006F6E582A17D059A215D05650010D9F0E0A
:10274800F324D96E010EF420DA6E01C0DFFF562A99
:10275800565001019F19D8A405D0598459926C9AF2
:10276800A49E1200A49E1200000E0001C36F000E6A
:10277800C26F0001B051D8B402D00001C28F00016D
:10278800B451D8B402D00001C28D0001AA51D8B406
:1027980002D00001C28B0001A705D8A402D0000115
:1027A800C289020E0001A719D8A402D00001C2876D
:1027B8000001AB51D8B402D00001C2850001B55167
:1027C800D8B402D00001C283050E0001C06FC2C098
:1027D800C1F01200200EE82EFED7010EA6EC14F070
:1027E800C2C0C5F0C3C0C6F0780E0001C55D010EB9
:1027F8000001C659D8A00BD0280E00019A19000173
:102808009B11D8B409D000019A4B9B2B05D0000E20
:1028180000019B6F000E9A6F280E00019A190001A3
:102828009B11D8A402D0010E01D0000E0001B66F92
:1028380012004BEC14F00001A0050001A111D8B45E
:102848001ED0000E0001C36F0F0EC26F3AEC16F0D7
:102858004BEC14F00001A0050001A111D8B40FD071
:10286800000E0001C36F0A0EC26F3AEC16F04BEC73
:1028780014F00001A0050001A111D8A402D0010E96
:1028880001D0000E0001AF6F0001AF51120080A20D
:1028980004D00001C46BC42B02D00001C46B00013A
:1028A800C4510001A06FA16B000E0001C36F010E9F
:1028B800C26F3AEC16F0000E80B2010E0001C66F2E
:1028C8000001C6510001C46FC56B0001A051000191
:1028D800C41909E10001A1510001C519D8A403D008
:1028E8000001A0511200000E120007EC17F00009B9
:1028F800D8A41200E1EC16F00001EE6BEF6B0001BA
:10290800EE19EF11D8B41200000E0001E06F010EAD
:10291800DF6F000E0001E26F000EE16F250E00016F
:10292800E36F000E0001E46F350E0001E56F060E3F
:102938000001E66F92EC0BF055EC16F0000E00016A
:10294800AE6F12000001C46FF30EC11611D0C2940D
:10295800C2860BD0C29403D0C29C18D0C284C2963F
:10296800C298C29AF9D7C284C296C288C28AF4D7DA
:102978000001C451000AD8B4EAD7010AD8B4EAD78A
:10298800030AD8B4EBD7010AD8B4EDD7C282C2B2D1
:10299800FED7C3CFC2F0C4CFC3F01200AECF01F050
:1029A800060E5118D8A40FD0010E5B6E5150010DC0
:1029B800B90EF324D96E000EF420DA6E01C0DFFFE1
:1029C800000E516E1200080E516003D05B04D8A4AB
:1029D80003D0000E516E1200000E5B6E5150010DB7
:1029E800B90EF324D96E000EF420DA6E01C0DFFFB1
:1029F800512A1200020E0001C56F000EC46FC4C038
:102A0800C2F0C5C0C3F0A8EC16F00001606F000169
:102A1800C44BC52BC4C0C2F0C5C0C3F0A8EC16F0A7
:102A28000001616F0001C44BC52BC4C0C2F0C5C012
:102A3800C3F0A8EC16F00001626F0001C44BC52B6F
:102A48001200000E80BC010E0001C46F000E0001D0
:102A5800C36F320EC26F3AEC16F0000E80BC010E46
:102A68000001C56F0001C5510001C419D8B402D0D6
:102A7800000E12000001C505D8A402D0000E1200F5
:102A8800010E1200000E80B6010E0001C46F000E88
:102A98000001C36F140EC26F3AEC16F0000E80B638
:102AA800010E0001C56F0001C5510001C419D8B459
:102AB80002D0000E12000001C505D8A402D0000EF5
:102AC8001200010E1200000E0001C56FC2C0A9FF5E
:102AD800C4C0A8FFA69EA69CA684000EF2BE010E46
:102AE8000001C56FF29E550EA76EAA0EA76EA682AC
:102AF800A6B2FED70001C5B102D0F29E01D0F28E77
:102B0800A6941200000E0001E06F010EDF6F000EA8
:102B18000001E26F000EE16F290E0001E36F000E65
:102B28000001E46F350E0001E56F060E0001E66F47
:102B380092EC0BF0010E0001AE6F120093800F01B2
:102B4800399194980F013A998B9893840F0139958C
:102B580093960F0139978A96949A0F013A9B8B8A1C
:102B680094860F013A9793820F01399393880F0146
:102B780039991200000E0001D06F010ECF6F080EB8
:102B88000001D16F020E0001D26FC00E0001D36F99
:102B9800000E0001D46FB1EC0EF0C3EC16F0120079
:102BA8005AA0120052500001B25DD8B002D05A901B
:102BB80012005250010D000EF324D96E010EF420BC
:102BC800DA6EDF50EDEC16F0522A1200CAC0C2F0DD
:102BD800CBC0C3F00001C46B8E0E0001C56F000EA0
:102BE8000001C66FB2EC0CF0C2C0CAF0C3C0CBF093
:102BF800C4C0CCF01200000E1E6E010E1D6E3F0EFA
:102C0800206E1F68290E216E000E226E350E236E6F
:102C1800060E246E37EC0EF0010E0001AE6F1200A6
:102C2800020E0001C76F020EC66FF29EC6C0C2F048
:102C3800C7C0C3F0000E0001C46F67EC15F00AECC2
:102C480017F0F28E1200020E0001C76F020EC66F57
:102C5800F29EC6C0C2F0C7C0C3F0AA0E0001C46F7E
:102C680067EC15F00AEC17F0F28E120002D0E7ECD0
:102C780016F00001C207D8A0C3070001C229F7E176
:102C88000001C329D8B41200F2D78B820001B40521
:102C9800D8A403D0010E0001B36F000E0001B46F79
:102CA800120059808B9A81B2FED76C8AC9CFC2F0C4
:102CB80050C16FFF010E586E12008B920001B45183
:102CC800D8A403D0010E0001B36F010E0001B46F48
:102CD8001200000E4F6E000E00017D6F000E7C6F1B
:102CE800000E4A6E1200000E506E000E0001816F39
:102CF800000E806F000E4B6E1200010E4F6E000E1C
:102D080000017D6F000E7C6F000E4A6E1200000EEF
:102D18003E6E000E0001816F000E806F000E486E3F
:102D28001200010E506E000E0001816F000E806FC0
:102D3800000E4B6E120059825994C9CFC2F0000E92
:102D48006F6E000E566E1200C2C0A9FFA69CA69E0A
:102D5800A68000F000F0A850120059825994C9CFFB
:102D680001F0000E6F6E000E566E120059B281B05F
:102D780001D06C8A000E81B8010E016E12005A80D3
:102D880001010051D3EC16F0010E526E12005A8068
:102D980001010051EDEC16F0010E526E1200000117
:102DA800C26FACA2FED7C2C0ADFF12000001C26F55
:102DB8000001C251800B3F6E120082A602D0000EA5
:102DC8001200010E12000001A2A1FDD70001A2917C
:102DD8001200016EACA2FED701C0ADFF1200010EB9
:102DE8005B6E000E516E1200010E3E6E000E486EB4
:102DF8001200016E0150800B3F6E1200A60E016E8C
:102E0800010E026E12005950010B1200A6A2120008
:102E1800FDD7000E5B6E12005950040B1200898416
:102E28001200899412008A8E12008A9E12008A8CDF
:0B2E380012008A9C12005B501200FF89
:020000040020DA
:08000000FFFFFFFFFFFFFFFF00
:020000040030CA
:0E000000FF28192EFFB580FF0FC00FE00F4044
:00000001FF
